:020000041000EA
:10000000880700209D010010B5020010B302001007
:1000100000000000000000000000000000000000E0
:10002000000000000000000000000000B902001005
:100030000000000000000000B7020010BB0200102A
:10004000AB010010AB010010AB010010AB010010C0
:10005000AB010010AB010010AB010010AB010010B0
:10006000AB010010AB010010AB010010AB010010A0
:10007000AB010010AB010010AB010010AB01001090
:10008000AB010010AB010010AB010010AB01001080
:10009000AB010010AB010010AB010010AB01001070
:1000A000AB010010AB010010AB010010AB01001060
:1000B000AB010010AB010010AB010010AB01001050
:1000C00000F002F800F03EF80CA030C80838241800
:1000D0002D18671EA246AB4654465D46AC4201D180
:1000E00000F030F87E460F3EB6460FCC0126334274
:1000F00000D0FB1A3343A246AB4618474C0500001C
:100100006C050000103A02D378C878C1FAD85207BB
:1001100001D330C830C101D504680C6070470000BD
:100120000023002400250026103A01D378C1FBD813
:10013000520700D330C100D50B6070471FB51FBDFB
:1001400010B510BD03488546FFF7F8FF00F0FAF937
:1001500000F09FF88807002003B4FFF7F1FF03BC0D
:1001600000F0A0F870B505460C46164602E00FCC2C
:100170000FC5103E102EFAD2082E02D303CC03C5B1
:10018000083E042E07D301CC01C5361F03E02178B9
:100190002970641C6D1C761EF9D270BD034800479F
:1001A000FEE7FEE7FEE7FEE7FEE7FEE7C100001020
:1001B000034610B50B439B070FD1042A0DD308C883
:1001C00010C9121FA342F8D018BA21BA884201D927
:1001D000012010BD0020C04310BD002A03D0D3076A
:1001E00003D0521C07E0002010BD03780C78401C9F
:1001F000491C1B1B07D103780C78401C491C1B1B96
:1002000001D1921EF1D1184610BDF8B5042A2CD3A5
:10021000830712D00B78491C0370401C521E8307C1
:100220000BD00B78491C0370401C521E830704D06E
:100230000B78491C0370401C521E8B079B0F05D086
:10024000C91ADF002023DE1B08C90AE0FFF78AFF76
:10025000F8BD1D4608C9FD401C46B4402C4310C0E3
:10026000121F042AF5D2F308C91A521EF0D40B78D3
:10027000491C0370401C521EEAD40B78491C0370C1
:10028000401C012AE4D409780170F8BD704770471A
:10029000704710B50446C046C0462046FFF75CFFD5
:1002A00010BD000001491820ABBEFEE72600020089
:1002B0007047FEE7FEE77047704770470120010274
:1002C000064A13680B431360FA211170D249D822F1
:1002D0000A600007024908607047C04600000840F5
:1002E00008ED00E0F0B585B0174603240646264029
:1002F0001F221506002E00952ED00491EFF31082D8
:1003000072B606232B603B236B60A0432C46054648
:10031000A0600423E3600121E161246988490C6045
:1003200082F310889C1BBC4200DB3C46012C08DB9E
:100330008819049922460B780370491C401C521EF0
:10034000F9D17F490422284600F06CF9049961181C
:100350003F1B2846281D009D052407E02246002358
:10036000DB43A3409F43052C14462AD1042F28DBEE
:100370003E462641012E20DB04910297012501947F
:10038000A5400027039007E020462A4600F04AF9DE
:100390007F19761E03980AD0C4190498C1198807DA
:1003A000F2D067482A46FFF730FF6549ECE7C019ED
:1003B0000499C919029F009D019C052CCED10222EF
:1003C000CDE7012F1ADBEFF3108472B606222A6004
:1003D0003B226A60A8600422EA600122EA612A697D
:1003E000574B1A6084F3108800240A5D1A55641C68
:1003F000A742FAD15249042200F014F905B0F0BD29
:10040000F0B587B003260F4637401F231C06002F88
:1004100026D0EFF3108372B6062525603B25656074
:10042000B1430691A1600421E1600125E5612569E0
:10043000434E356083F31088C91B914200DB11469F
:10044000012908DBF71906460B463D7835707F1CFD
:10045000761C5B1EF9D10818521A069F3F1D00E05A
:100460000F46052505E00225019A01219A4300293E
:1004700049D0042A47DB1146294103910129019201
:10048000029535DB01221346AB409910012900DCAF
:1004900011468E000025049307E0069F049BFF1879
:1004A000C0186D1C03998D4222D0EFF31081059185
:1004B00072B6062121603B2161600697A760E36068
:1004C0000121E16181070746014600D01C49002255
:1004D00023698B50121D9642FAD1059880F310883B
:1004E0003846B942D9D0049AFFF78FFE3846D4E790
:1004F0000021CB43029DAB40042DB4D0052D019AC1
:10050000B4D10425B1E7012A18DBEFF3108172B6EC
:10051000062323603B236360A7600423E360012379
:10052000E36105462369064803602B4681F3108882
:1005300001781970401C5B1C521EF9D107B0F0BD48
:1005400068010020FFF7BAFE00F02CF872B60548EB
:10055000016881F30988016881F308884068804751
:10056000FEE7C0460020001080B500F061F880BDB5
:1005700080B5034608461946FFF742FF80BDB0B577
:10058000002909D00C460546284600F057F80120FE
:1005900000032D18641EF7D1B0BD80B5FFF7A2FE91
:1005A00080BD0000F0B587B0194801A91822FFF7F7
:1005B000DFFF18480199814228D1069D002D25D0E2
:1005C0001548D824046015482818000B81B2049EF1
:1005D000059F3846FFF7D3FF0F4804603846314681
:1005E0002A46FFF7DAFF304639462A46FFF7E0FD94
:1005F000002806D100200690C04301900448FFF770
:10060000B3FF07480121016030BFFEE707B0F0BD2E
:1006100000F003107856341200010040FF0F000074
:100620000800004003B40148019001BD21010020F1
:1006300003B40148019001BDEF00002003B401485C
:10064000019001BD25000020680600100000002078
:100650006801000004010010D007001068010020AC
:100660002006000020010010074801461C39012225
:100670000A600146183905230B60014610390A60EB
:10068000026000687047C0461C00001F10B5EFF301
:10069000108472B61F21090600220A6006224A60F1
:1006A0000122CA6103230B6020234B608860CA616A
:1006B000FFF7DAFFC007FBD184F3108810BDC046F6
:1006C00010B5EFF3108172B6084802461C3A0123B8
:1006D00013600246183A052414600246103A13606B
:1006E0000360006881F3108810BDC0461C00001F25
:1006F00010B5EFF3108172B6084802461C3A012388
:1007000013600246183A352414600246103A13600A
:100710000360006881F3108810BDC0461C00001FF4
:10072000B0B5EFF3108472B61F22120600231360D7
:10073000062353600123D361022515605360D56001
:10074000090208181061D361FFF78EFFC007FBD1C3
:1007500084F31088B0BD10B5EFF3108472B61F217A
:10076000090600220A6006224A600122CA610323A8
:100770000B608A234B608860CA61FFF775FFC00772
:10078000FBD184F3108810BD70B5EFF3108472B6FE
:100790001F231B0600251D6006255D600125DD6108
:1007A00005261E6002265E609860DA60042A07DB78
:1007B0009010012800DC284604C91A61401EFBD1B4
:1007C000DD61FFF751FFC007FBD184F3108870BDD6
:020000041000EA
:10200000C0220020213B0010273B0010253B001080
:1020100000000000000000000000000000000000C0
:10202000000000000000000000000000293B00103C
:1020300000000000000000002B3B00102D3B0010B2
:102040002F3B00102F3B0010750200202F3B00108B
:102050002F3B00102F3B00102F3B00102F3B001098
:102060002F3B00102F3B00102F3B00102F3B001088
:102070002F3B00102F3B00102F3B00102F3B001078
:102080002F3B00102F3B00102F3B00102F3B001068
:102090002F3B00102F3B00102F3B00102F3B001058
:1020A0002F3B00102F3B00102F3B00102F3B001048
:1020B0002F3B00102F3B00102F3B00102F3B001038
:1020C00080B504480168491C01600168024801F0BC
:1020D000F7F980BDB01C00203E66001080B582B0CC
:1020E000014601A801700078002817D1FFE71048C9
:1020F0000168491C016001680E4801F0E1F90E48D1
:102100002521415C25304078000241180B4801F040
:10211000D7F90B48202101F0D9F904E009490868F2
:10212000401C0860FFE708490020087002B080BD2D
:10213000A81C0020576600106C1B00202E660010A3
:10214000881C0020D81A0020741C002080B50B4881
:102150000168491C01600168094801F0B1F90949A9
:10216000032048770620087725222020885425312F
:10217000002048700449087080BDC046B81C00208B
:102180006F6600106C1B00207C1C002081B000904A
:10219000012001B07047000087B0069025480090EC
:1021A0002549086803900398069A90430390039882
:1021B000086000200590FFE70598052837DCFFE759
:1021C00000980599890040580390FF200290A020B4
:1021D000019000200490FFE7049803281DDCFFE72E
:1021E00006A80078C007002809D0FFE703980299E5
:1021F000884303900398019908430390FFE70698EA
:102200004008069002980002029001980002019096
:10221000FFE70498401C0490DEE703980099059AB4
:1022200092008850FFE70598401C0590C4E707B06E
:102230007047C046000201403000014082B001906A
:10224000074800680090FFE7054800680099401AB9
:102250000199884201D2FFE7F6E702B07047C04615
:102260000401004280B500F0F3FC80BD424B1B78B6
:10227000002B46D0414B1B78002B06D1404A5379A6
:10228000023353713D4B01221A703E490B680F22F5
:102290009343042003430B603B48036893430721A7
:1022A0000B4303603948036893430B43036038488A
:1022B000036893430B4303603648036893430B431F
:1022C00003603548026835490A4080231B011A43E0
:1022D0000260334802680A401A43026031480268CB
:1022E0000A401A430260304802680A401343036000
:1022F0002E490A682E4B1A4080239B0013430B6023
:10230000704720490B680F229343042003430B605E
:102310001D480368934307210B4303601B48036870
:1023200093430B4303601A48036893430B430360D2
:102330001848036893430B43036017480268174922
:102340000A4080239B001A430260154802680A4035
:102350001A430260134802680A401A430260124896
:1023600002680A401A43026010490A681048024095
:1023700013430B60C4E7C046621B0020601B0020B3
:10238000401B0020682000426C2000427020004268
:1023900074200042782000427C200042FFF0FFFFC2
:1023A000802000428420004288200042C820004251
:1023B000FFF8FFFF10B50D4B1968802252050A4344
:1023C0001A601A680A490A401A600A4B01221A6008
:1023D00004321A60182100F077FF053080B2FFF751
:1023E0002DFF054B1868C002C00A10BDCC2000426A
:1023F000FFFFFFEF18200042F020004210B50D4A09
:10240000136801210B4313600B4B02221A600B4A25
:1024100013680B4313600A4B88221A60094C0A4B5D
:1024200023600A4B0A4A1A600420FFF707FF094B92
:10243000236010BD0420004200000440E820004258
:1024400004000440600004400240000070000440AA
:102450000F030000024000808423DB05602200217E
:102460009954D8605F3A1A60190063328B5C002B74
:10247000FCD08423DB05012264215A5404395A54C8
:102480007047F0B5DE4657464E464546E0B587B044
:10249000374B1A68002A07D08021C905B023CB58D2
:1024A0009B1A344A93425CD9334B1968334A92469B
:1024B000126802923248814600680390314E3468B7
:1024C00004941A68082002431A602F4C2568059569
:1024D0002E4D2A68019222680738024322602C4F51
:1024E0002C4A3A6080221202019802432A60196045
:1024F000FFF784FF0820FFF7A1FE274A90461068E7
:10250000264B1B7AC01A0430C010254A9346254B2F
:10251000DB6A1B03DB0E584305300A2100F0F6FE90
:102520005A4610608022D205B023D258104B1A6050
:102530001D4A136801218B4313600023336023601D
:102540003B688B433B605146029B0B604946039BB3
:102550000B60049B3360059B236001982860434611
:102560001B6807B0F0BCBB46B246A946A046F0BD0A
:10257000D01A0020FB7F02000C000840000004403D
:102580000400044060000440700004402800004043
:1025900004200042FF0300006C000440401B0020A8
:1025A000F01A0020F41A0020E820004270B582B032
:1025B00001AB04221A7004325A70063A9A705C56C3
:1025C000122819D80026082801D8640064B21748D8
:1025D0000268120C1204164B7500AD195B195B5C96
:1025E000144D2D685B191B19134C615C09020B43D8
:1025F0001343036002B070BD3A2807D9442801D9BB
:10260000640064B2644264B20226E0E71338C0B2E8
:102610000D2804D91A2805D800240126D7E700245C
:102620000026D4E700240226D1E7C046201000424D
:10263000E41A0020F01A00201015002010B500F058
:1026400005FD10BD034B1B78834201D0014B187070
:102650007047C046DC1A00200B4BFF221A700B4952
:102660000B4800220B881B019B1808C00132023165
:10267000092AF7D107490A68074B1A40074B1B7B09
:102680009B0613430B607047DC1A00204E1B002092
:1026900020200042C4200042FFFFFFF3401B002027
:1026A0007047704710B5224A13683F218B4313606F
:1026B000204B07221A6020490A68204B1A40204B01
:1026C00013430B601F490A681F4B1A40B0235B037A
:1026D00013430B601D4A116880239B000B4313605A
:1026E0001B4B03221A601B4A13681B490B40C02175
:1026F0000B43136019490A68194B1A40B0235B0059
:1027000013430B60174A116880231B010B431360AE
:10271000FFF7ACFD144A136814490B401360144BC7
:102720001A78144B1A60144B144A1A6010BDC04634
:1027300008200042142000421C20004210C0FFFF6D
:10274000E83C000020100042FFFF00FF0420004290
:1027500000030040E02000423FFEFFFFE420004273
:102760001FFEFFFFD4200042AC200042FFFEFFFF0F
:102770004E1A00201811004230110042FF3F0000A5
:1027800010B5FFF75BFFFFF767FF10BD10B5354BC6
:102790001B78002B41D000283AD0334A1268D20768
:1027A0000BD4324B1968304A13680120034313607D
:1027B000FF230B402E4A13602FE0012B2DD12D4B10
:1027C0001968CAB22C4B1B687F240C40590638D5B7
:1027D000520600D47F24D9B2244B1868C0B2020933
:1027E0000F230340762934D86B2908D8000706D474
:1027F0000133DBB2002A1ED0013AD2B21BE0762CA4
:1028000015D86B2C17D8072A15D80132D2B212E08E
:10281000154A136801218B43136010BD134B1968CF
:10282000C9B20A090F2003000B40084213D1002A45
:1028300001D0013AD2B212019B18DBB20C4A1360EC
:10284000EBE75206EAD5094B1968C9B20A090F230A
:102850000B40002BD3D0013BDBB2072AEBD801326F
:10286000D2B2E8E70C15002000110042EC11004242
:1028700004110042E0110042E411004270B5CC00A6
:102880000019914211D84025084E04E0083001316A
:10289000C9B28A4209D34468AC434460F373002B45
:1028A000F4D044682C434460F0E770BD6C1B0020FA
:1028B000034B00221A6000049032104358607047A6
:1028C000B81B0020F8B5154B58608422D205582358
:1028D000D35ADB051FD50024114F124E3D682D1928
:1028E000305D00F0F9FD28700134042CF6D10C4B5A
:1028F0001B681A680C4B1A60084B1A7901231340A5
:102900005A4253415B425521194055310748102224
:1029100000F0E8FDF8BD044B1860EDE76C1B0020EB
:1029200014150020701B002080000042A81B00200E
:102930008423DB05D86B70478423DB05186C704754
:102940008423DB055B68022018407047704770479E
:10295000704770B515001A4A01242F269455194A5C
:102960001470194A00241470184A14780234E4B21E
:10297000E400174AA4182060C904164A944661442A
:10298000A28811436160180000F0B2FD12482900CE
:1029900000F098FB114B124A1A60124B1B78002B67
:1029A00008D0114B8422D205D3608423DB05012299
:1029B0001A6070BD0D4B8422D205D360F5E7C04686
:1029C0006C1B002013150020631B0020D41A00206C
:1029D000B81B00200000FFFF50180020781C0020CA
:1029E00030160020BC1C00201815002030150020D7
:1029F00070B5044C049D2560034C01252570FFF73C
:102A0000A8FF70BDF8180020BC1C002070B50D0098
:102A100011001E001C4B2F2201249C541B4B002232
:102A20001A701B4B1C780234E4B21A4B1D80E40070
:102A3000194BE4182060ED04184B9C466544A388AC
:102A40001D436560164800F03DFB164B164A1A60A0
:102A50008423DB059E82154B1B78002B0FD0144B73
:102A60008422D205D360EFF3108472B68423DB0591
:102A700001221A60FFF705FD84F3108870BD0D4B2D
:102A80008422D205D360EEE76C1B002013150020D2
:102A9000D41A0020FC1B0020001C00200000FFFFB7
:102AA00010190020781C0020A0160020BC1C00205B
:102AB000801500209815002070B5044C049D2560F9
:102AC000034C01252570FFF7A1FF70BDF818002009
:102AD000BC1C002010B51A4B01222F215A54194B4F
:102AE0001A70194B00221A70184B1B780233DB0046
:102AF000174A9B1882681A60998859608289D204A3
:102B0000144CA44662440A435A60134B134A1A6099
:102B1000134B1B68002B0CD00268124B1A608422E6
:102B2000D205D3600E4B18608423DB0501221A60A6
:102B300010BD02680C4B1A608422D205D360F1E705
:102B40006C1B002013150020631B0020D41A0020EA
:102B5000B81B00200000FFFF781C0020301600206A
:102B6000641B0020701500205015002010B51B4B71
:102B70002F22012199541A4B00221A70194B828975
:102B80001A80194B1B780233DB00184A9B188268A5
:102B90001A60998859608289D204154CA44662440F
:102BA0000A435A60134B144A1A60144B1B68002BDB
:102BB0000CD00268124B1A608422D205D3600F4BEE
:102BC00018608423DB0501221A6010BD02680D4BDA
:102BD0001A608422D205D360F1E7C0466C1B002046
:102BE00013150020FC1B0020D41A0020001C00201C
:102BF0000000FFFF781C0020A0160020641B0020AE
:102C0000D8150020B815002010B50300827B002ADB
:102C10000CD10E4A516802680A3A00208A4200D854
:102C200010BD1800FFF756FF0120F9E78289002A3E
:102C300007D103690020002BF2D01800FFF7E4FF52
:102C4000EEE7FFF793FF0120EAE7C04600010042EC
:102C500070B58423DB056422012199545D68082442
:102C60002C4004262E405F4B1B78002B05D05E4B7A
:102C70001B78002B01D1002C17D15C4B00221A606D
:102C80005B4B1A705B4B1B68002B38D0554A12788F
:102C9000002A12D0544A1278002A0ED00022002CAA
:102CA00001D072427241DA730DE000F0BFF94E4B71
:102CB00001221A70AB07E0D46BE04A4A1278002A6E
:102CC00001D10132DA734C4A52685A601B69002BF9
:102CD0000CD00023494A1370494A1371454B1B68B5
:102CE0001869FFF791FF002809D052E0454A53695F
:102CF00008218B435361444AD3688B43D360434AD2
:102D00002023D35CDBB242490B602C23D35CDBB2C3
:102D1000404A13600023394A1370394A13713E4BFD
:102D20001B78012B0ED0022B38D0032B46D03B4A08
:102D3000927C002A4FD0002C01D0002E4DD0002BC9
:102D40000DD108E0002C25D0334B00221A70334BF4
:102D5000303201219954314B2F2200219954254BB7
:102D60001A68002A01D012691A601E4B1B78002BCA
:102D700028D01C4B00221A7008202840FFF706FDBF
:102D80000120002C02D03000431E9841C0B200F058
:102D900051F970BD204B00221A70DCE71F4B9B7C61
:102DA000002B12D0002C12D0002E10D11A4B03226F
:102DB0001A701A4B2D3201219954D0E7164B00227C
:102DC0001A70C8E700F03AF9E3E7002CEED1124B95
:102DD00000221A70BFE7002CB1D0104A3021012028
:102DE0005054ACE713150020631B0020781C002012
:102DF000BC1C0020641B00200001004200100042A7
:102E000080000042E017002020180020C01100427E
:102E1000841C0020AC1C0020401C00206C1B0020E7
:102E200070B5040015000C4A082053690343536130
:102E30000A4AD3680343D3608423DB059982084898
:102E4000210000F03FF90748210000F03BF928007D
:102E5000FFF7DAFE70BDC046E01700202018002002
:102E6000501800201019002010B50300044A1278F1
:102E700004490978044C2000FFF700FD10BDC0464E
:102E8000DF1A0020E01A0020001C002010B503000B
:102E9000044A127804490978044C2000FFF7EEFC3C
:102EA00010BDC046DD1A0020DE1A0020B81B00202D
:102EB00010B572B60F4A1378002BFCD18423DB05C2
:102EC00002221A606232012199540B4B18680028C3
:102ED00004D0FFF7C1FA084B00221A6062B6074B14
:102EE00000221A70064B1A60064B2F215A540131EA
:102EF0005A5410BD611B0020781C0020BC1C00200F
:102F0000F81800206C1B0020F0B5C64600B505007F
:102F1000CF0A64235F43002F01D1FA27BF00490580
:102F20004B0D98461E007E433049300000F0EEF90C
:102F3000C53084B239002D4800F0E8F90100404660
:102F400000F0D4F87943CB005B185B005918CB0034
:102F5000C9184802401AFA21890000F0D7F9070081
:102F6000234B9D4222D0234B9B789846FA21C900DF
:102F7000300000F0CBF94346023B0021012B05D97C
:102F800041464346022B00D90221C9B2C0B2FFF725
:102F90000DFB00230022002124053C43641ADC4081
:102FA00014432C60280080BCB846F0BD114B9B78C0
:102FB000012B0FD010490A68104B1A40104B1343D5
:102FC0000B600C4B9B78012B0CD001238022120646
:102FD0000C49E1E708490A68084B1A40084B1343BB
:102FE0000B60EEE7802212060749D5E7E02E0000CD
:102FF000501800206C1B0020CC200042FFFCCFFFAB
:103000000003300055550100ABAA020080B5FFF760
:10301000FDFC80BD80B5FFF79CFC80BD80B5FFF74F
:1030200047FF80BD80B5FFF78BFC80BD80B5FFF703
:1030300047F880BD80B5FFF751F880BD80B5FFF738
:1030400085F880BD80B5FFF7A1F880BD10B5164C9E
:103050002168164A1379DB00507900020343507847
:1030600080030343890C89040B4311490B432360FC
:1030700010480168104B1940D379023BDB010B4328
:1030800003600E4C20680E4B184091780131D378C4
:10309000DB011278D2061343CA041343C9050B435C
:1030A0000343236010BDC04604010840401B0020BC
:1030B00002200000100108407FF8FFFF08200042B6
:1030C0007FF8078010B50022FFF71EFF10BD00003B
:1030D000002203098B4273D3030A8B4258D3030B9C
:1030E0008B423CD3030C8B4221D312E003460B43AB
:1030F0007FD4002243088B4274D303098B425FD3F1
:10310000030A8B4244D3030B8B4228D3030C8B421C
:103110000DD30902FF2212BA030C8B4202D3121202
:10312000090265D0030B8B4219D300E0090AC30BD7
:103130008B4201D3CB03C01A5241830B8B4201D384
:103140008B03C01A5241430B8B4201D34B03C01A6D
:103150005241030B8B4201D30B03C01A5241C30AE5
:103160008B4201D3CB02C01A5241830A8B4201D356
:103170008B02C01A5241430A8B4201D34B02C01A40
:103180005241030A8B4201D30B02C01A5241CDD2E5
:10319000C3098B4201D3CB01C01A524183098B4230
:1031A00001D38B01C01A524143098B4201D34B0119
:1031B000C01A524103098B4201D30B01C01A52417C
:1031C000C3088B4201D3CB00C01A524183088B4203
:1031D00001D38B00C01A524143088B4201D34B00EC
:1031E000C01A5241411A00D201465241104670475E
:1031F0005DE0CA0F00D04942031000D34042534063
:103200009C46002203098B422DD3030A8B4212D322
:103210008901FC2212BA030A8B420CD38901921154
:103220008B4208D3890192118B4204D389013AD091
:10323000921100E08909C3098B4201D3CB01C01A66
:10324000524183098B4201D38B01C01A5241430979
:103250008B4201D34B01C01A524103098B4201D367
:103260000B01C01A5241C3088B4201D3CB00C01AD4
:10327000524183088B4201D38B00C01A5241D9D2EC
:1032800043088B4201D34B00C01A5241411A00D26D
:1032900001465241104663465B1001D34042002B69
:1032A00000D54942704763465B1000D3404201B5E8
:1032B0000449002802DC491C084000E00846C046DA
:1032C000C04602BDFFFFFF7F43088B421AD3002296
:1032D00003098B4279D3030A8B425ED3030B8B42E3
:1032E00042D3030C8B4227D30902FF2212BA030CEC
:1032F0008B4202D31212090203D0030B8B4233D349
:103300001AE0D3E0411A8041401C704703460B434A
:1033100071D443088B42F5D3002203098B4254D366
:10332000030A8B4239D3030B8B421DD3030C8B4210
:1033300002D394466EE0090AC30B8B4201D3CB0340
:10334000C01A5241830B8B4201D38B03C01A5241E6
:10335000430B8B4201D34B03C01A5241030B8B42E8
:1033600001D30B03C01A5241C30A8B4201D3CB02D3
:10337000C01A5241830A8B4201D38B02C01A5241B8
:10338000430A8B4201D34B02C01A5241030A8B42BB
:1033900001D30B02C01A5241CDD2C3098B4201D3D3
:1033A000CB01C01A524183098B4201D38B01C01A51
:1033B000524143098B4201D34B01C01A52410309C8
:1033C0008B4201D30B01C01A5241C3088B4201D377
:1033D000CB00C01A524183088B4201D38B00C01A24
:1033E000524143088B4201D34B00C01A5241411A4B
:1033F000524110007047CA0F00D04942031000D359
:103400004042534000229C4603098B422DD3030ABD
:103410008B4212D38901FC2212BA030A8B420CD3CD
:10342000890192118B4208D3890192118B4204D3F6
:10343000890137D0921100E08909C3098B4201D379
:10344000CB01C01A524183098B4201D38B01C01AB0
:10345000524143098B4201D34B01C01A5241030927
:103460008B4201D30B01C01A5241C3088B4201D3D6
:10347000CB00C01A524183088B4201D38B00C01A83
:103480005241D9D243088B4201D34B00C01A52415A
:10349000411A00D201465241104663465B1000D3E8
:1034A0004042704763465B1000D3404201B50021A3
:1034B000004201D0C9430846C046C04602BD0000D4
:1034C00003B40148019001BDA15F001003B401489D
:1034D000019001BD214B001003B40148019001BDD2
:1034E0001355001003B40148019001BDC33B001007
:1034F00003B40148019001BD815400100100000097
:103500002B561601741B0020F818002000600000E4
:103510000000000000500100611B0020002001009D
:103520005018002000600000F0150020006000002E
:10353000611B002000200000F8150020086000003A
:10354000000000000074000050180020006000001F
:103550000000000000501E00F81500200860000068
:103560000000000000740000F81500200860000052
:10357000F81800200060000000000000005001006A
:10358000611B0020002001001019002000600000D5
:10359000F015002000600000611B002000200000EA
:1035A00058160020086000000000000000740000B1
:1035B00010190020006000000000000000501E00F4
:1035C0005816002008600000000000000074000091
:1035D0001520004240300606581600200860000002
:1035E0000000000008501E00681700200060000066
:1035F0000018002000600000D816002000600000C5
:10360000441C0020006000007817002000600000CB
:10361000F0160020006000000000000000600000C4
:10362000E816002000600000701700200060000015
:10363000611B002000200100E01700200060000056
:10364000611B0020082000006817002000600000B7
:1036500038180020006000005C1C002000600000A2
:103660009017002000600000A017002000600000FC
:10367000001900200060000000170020006000001A
:103680000000000000600000611B0020002001001D
:10369000081900200060000098170020006000005A
:1036A000F816002000600000801700200060000075
:1036B000E8160020006000002018002000600000D4
:1036C000611B0020082000000000000008500100DD
:1036D0000000000000000000001000420820000070
:1036E0000010004208200C000010004208200100D9
:1036F0000010004200200300000000008050020083
:1037000027100042483000800C2000428020FF003B
:103710000000000000500A00042000424030000475
:103720000C200042403000011820004240300001CF
:1037300018200042403001011820004240300002B1
:10374000182000424030020218200042403000029F
:10375000E018002008600000000000420820060079
:10376000840000420820000084000042082001007C
:103770001520004240300002840000424830000220
:103780008400004248300202152000424830000503
:10379000152000424830010118200042403000014D
:1037A00000200042403000010C2000428020000038
:1037B000042000424030000104200042403000025A
:1037C00004200042403000FC052000424830000147
:1037D000082000424030808009200042403002072B
:1037E0001020004280200000A81700200860000080
:1037F000D220004240300F0F08200042403080802D
:103800000920004240300107102000428820FF01BB
:10381000050108404030051F082000424030003FAD
:10382000A8170020086000000820004240301E3F1A
:103830000920004240307878D22000424830030FFF
:103840000000000020202410DC200042403080C016
:10385000DD20004240300107DC20004240303C3C8B
:10386000E420004240300C1CDE20004240300404C2
:10387000092000424030207809200042403000807A
:103880000A20004240300207DD200042403000089C
:10389000E220004240300080E3200042403000033C
:1038A000002000424030010104200042403001016C
:1038B000042000424030FCFC052000424030010161
:1038C0001C20004240300010181700200860000043
:1038D000001000420020000000000042002006000E
:1038E0000000000008500100000000000874000003
:1038F000801C002008100700000000000850050090
:103900000000000020202410DC2000424030C0C015
:10391000DD20004240300207DC2000424030203CE5
:10392000E42000424030141CDE20004240300004FD
:103930000920004240303078092000424030808029
:103940000A20004240300207050108404030101FA5
:10395000DD20004240300808E220004240308080F4
:10396000E3200042403003030020004240300101C8
:10397000042000428020FF0315200042403006064C
:103980001C20004240301010271000424030808040
:103990001817002008600000E816002000600000F2
:1039A0007017002000600000E01700200860000091
:1039B000501800200060000000000000005032009D
:1039C0006817002000600000001800200060000060
:1039D0000410004200200100781700200060000061
:1039E000F0160020086000000E101A101D1029109B
:1039F0002B102D1039103A103B103D104D1888181F
:103A000089188A188B188C188D18CA18CB18CC18DE
:103A1000CE180C190D194C194D198D19CD190D1AF7
:103A20004D1A8D1ACD1A4D1BCD1B4D1C4D1D8E1ED2
:103A3000CE1FCE1F400C400C400C430C4A0C7000B3
:103A400000F002F800F040F80CA030C80838241844
:103A50002D18671EA246AB4654465D46AC4201D1C6
:103A600000F032F87E460F3EB6460FCC01263342B8
:103A700000D0FB1A3343A246AB461847582C00002F
:103A8000982C0000103A02D378C878C1FAD85207AF
:103A900001D330C830C101D504680C607047000004
:103AA0000023002400250026103A01D378C1FBD85A
:103AB000520700D330C100D50B6070471FB500F02E
:103AC000C0F81FBD10B510BD03488546FFF7F6FFCF
:103AD00001F07EF800F0A6F8C022002003B4FFF742
:103AE000F1FF03BC00F0A6F870B505460C4616467B
:103AF00002E00FCC0FC5103E102EFAD2082E02D3D2
:103B000003CC03C5083E042E07D301CC01C5361FE4
:103B100003E021782970641C6D1C761EF9D270BDFB
:103B200003480047FEE7FEE7FEE7FEE7FEE7FEE7A5
:103B3000413A001010B5044600F002F8204610BDCE
:103B4000F8B5042A2CD3830712D00B78491C0370D4
:103B5000401C521E83070BD00B78491C0370401C7D
:103B6000521E830704D00B78491C0370401C521E60
:103B70008B079B0F05D0C91ADF002023DE1B08C965
:103B80000AE0FFF7B1FFF8BD1D4608C9FD401C461D
:103B9000B4402C4310C0121F042AF5D2F308C91AEE
:103BA000521EF0D40B78491C0370401C521EEAD4FC
:103BB0000B78491C0370401C012AE4D40978017079
:103BC000F8BD134610B50446CAB219461002821851
:103BD00010048218204600F00FF8204610BD01E0C6
:103BE00004C0091F0429FBD28B0701D50280801C69
:103BF000C90700D00270704700290BD0C30702D05C
:103C00000270401C491E022904D3830702D502809A
:103C1000801C891EE3E70022EEE70022DFE7704701
:103C20007047704710B50446C046C0462046FFF7AF
:103C300055FF10BD01491820ABBEFEE7260002006B
:103C4000704710B500F004F80021016010BD0000BD
:103C500000487047541A002088B007900798006801
:103C60003649884226D1FFE7364908680122920288
:103C70001043086000200690FFE70698092805DC3D
:103C8000FFE7FFE70698401C0690F6E72D49086815
:103C90000122920290430860FFE7402005902A49E4
:103CA00008680490059A049890430490049808606A
:103CB000FFE72CE0079800682149884226D1FFE7FA
:103CC000204908680122D2021043086000200690B3
:103CD000FFE70698092805DCFFE7FFE70698401C88
:103CE0000690F6E7174908680122D202904308605F
:103CF000FFE780200390144908680290039A029815
:103D00009043029002980860FFE7FFE7FFE70E4844
:103D100000680006800F00280ED1FFE7FFE7202093
:103D200001900A4908680090019A00989043009019
:103D300000980860FFE7FFE708B0704700100041F7
:103D40000020004108000040280000402000004002
:103D500081B0009001B0704710B501F05DF90E4BD5
:103D60001A6807210A431A600C4A0D4911600D4A6E
:103D70000D4911600D4A0E4911600E4908688022F4
:103D8000120102430A6019680B4A1140FC22120416
:103D90000A431A6010BDC046100108406000084088
:103DA000429600000C010840AB5B00000800084090
:103DB000434328210C000840E7FF03FF064B074A56
:103DC0001A6002040648104358608422D2059A60A3
:103DD000044ADA607047C046D8160020140000423A
:103DE000802000010820050010B51B4B9A781B4964
:103DF0000C687F2323400B60194B9B78012B1ED04E
:103E000018D9023B012B24D82422802405231549EC
:103E100001601B04802189010B434360124B8360C6
:103E200012041143C160114B03612404104B23435E
:103E3000436110BD084B1A7880240123E7E7074A45
:103E4000136880210B431360034B5A7884240323A7
:103E5000DDE780241123DAE7F81B0020C0200042B0
:103E60006C1B0020041000428C10004250100042D5
:103E70000820000070B52C4B2C4CA278985C01F007
:103E8000C7FA606802F000FBE37C8425ED05EB6176
:103E900063692B62A3696B62227F5423EA5424482E
:103EA000FFF7A2FF2348FFF79FFF207C01F0E8FA0D
:103EB0002188214802F0EEFA2188204802F0EAFA2F
:103EC0001F4A9188F0235B030B4353601D4B1E4A2E
:103ED0009A631E4B1E4A1A635823EB5ADB05DB0F0D
:103EE000217901220A409B1A5A4253415B425522D2
:103EF0001A4055320D4B9B78023B012B11D90B4BCD
:103F0000D978002905D000231248C25401338B42CE
:103F1000FBDB064B2F2201219954013200219954D9
:103F200070BD3C22EBE7C046786500106C1B00209A
:103F30005C1C0020441C0020101900205018002098
:103F4000F015002058160020001C0020F815002055
:103F5000B81B0020A81B0020064B00221A6000049A
:103F60009032104358608022D201DA60103318007A
:103F70007047C046B81B0020F8B5394FFE7B731E52
:103F80009E41B601BC7C631E9C4125016401F8681A
:103F90000002000CFFF7E0FF324A334BC31ADB107C
:103FA00013703B7F002B49D02D4B5B7F002B0BD038
:103FB0002E4A02601E3A537F013B1B04527C13437E
:103FC0002343334343600830294A0260253A137F74
:103FD000013B1B04517C31430B43234380214900A7
:103FE0000B434360D37F002B1BD10830214B1B6850
:103FF00003601B4A537C2B43126A1202120C1204F8
:1040000013432343334380229200134343601A4AED
:10401000154BC31ADB101370436808221343436027
:10402000F8BD164A8260203AD37F013B1B04527CC4
:10403000134323433343C3601030D7E70D4B1B6852
:104040000360074A536A1B021B0CDB040C498C46B5
:1040500063443343527C13432C431C434460D6E7F0
:104060006C1B0020DE1A0020B81B00208A1B0020D9
:10407000911B0020681B0020DD1A00208C1B0020F3
:104080000000FFFF19481A4B03601A49CB78DB0484
:10409000194A9446634480225201134343608B784B
:1040A000032B11D0022B17D0144B00218022520178
:1040B0000E4883600F4B1B7BDB005B18013B1B042E
:1040C0001343C360083070470B0000220A724A7223
:1040D000043305210A4AEBE7064B01221A7200223B
:1040E0005A7204330521064AE2E7C046001C00204C
:1040F000A81B00206C1B00200000FFFF701B00208D
:1041000002100000F8B5464FFC7B631E9C41A401E1
:10411000BD7C6B1E9D412E016D01FFF7B3FF8446F0
:10412000020008327B6A1B021B0C2321785C0131E0
:10413000795C090201435B1A9BB23A490B803A4809
:104140003A49511AC9100170397F002927D03449E2
:10415000497F002911D03649624691601E394A7F55
:10416000013A1204497C21430A432A438021490130
:104170000A436146CA60624610322A4911602848E3
:10418000017F01390904477C2743394329438027AC
:104190007F0139435160C17F002926D1083220496F
:1041A00023200F5C0130085C00023843214F3F6838
:1041B00038181060DB04204884466344487C03437D
:1041C00033432B43234380204001034353601B4868
:1041D000164BD31ADB1003708B78023B012B14D9DA
:1041E000536808210B435360F8BD15489060203890
:1041F000C17F01390904407C2043014329438020C9
:1042000040010143D1601032C9E70E4B591D916046
:10421000597B84239B020B43D3600832E0E7C046FE
:104220006C1B0020FC1B0020E01A0020001C00205A
:104230008A1B0020681B00200000FFFFDF1A0020FF
:104240008C1B0020701B0020044A536A04490B4059
:104250004000C0B20004034353627047A817002017
:10426000FFFF00FFF0B5DE4657464E464546E0B537
:104270008BB00020FFF7E8FF02F012F9C54DAB78D4
:10428000C54C6168C54A114018001930C0B200041D
:1042900001436160E1681140181DC0040143E16001
:1042A000BF4C616811406879000401436160BD4CF6
:1042B000E16C1140A87900040143E164591C89466E
:1042C000C9B2606B10404E1CF60430436063E66B6D
:1042D0001640B046C8058446FF20000466460640E6
:1042E00047463743E763666C164049080904314383
:1042F0006164AD494E6B16404F46FF043E434E632A
:10430000CE6B1640DF0507403E43CE634E6C164031
:104310005F083F043E434E64023BDBB2A34EF168AC
:104320001140DF0507403943F160716911405B08B6
:104330001B040B437361EB789D4D69681140DE05EA
:10434000304001436960E9680A405B081B0413437D
:10435000EB6000F023FF09AD964B1A882A809B780A
:10436000AB70954B954A1A6095490B685B0C5B04E2
:104370008122520213430B60924B2360200002F013
:1043800095F8914B9A460695002301930593049363
:10439000039302938D4B9B4619E0039B9C46AC44D0
:1043A00063460393049B9C46A44463460493059B85
:1043B0009C46BC4463460593019B01330193019BDA
:1043C000022B00DD84E0029B022B00DDA5E0069BB2
:1043D000187800F00BF95B4600221A605A46012358
:1043E0001360032515601360C82002F065F8784C4F
:1043F0002268B0239B0213432360764E764B3360D2
:1044000023689B0B1D4080231B01AB401D009BB20A
:104410009846CE214900180001F01AF907009921A9
:104420008900404601F014F923686C4A1340236068
:104430006B4B3360C01B43001B185B0098466E013A
:10444000761BB60076191900300002F03BF8814661
:104450000A2102F03DF804248C42BF417F420A2128
:10446000484602F02FF83F18FFB2534607939F705B
:10447000FA206843414602F025F881460A2102F0FD
:1044800027F88C42AD416D420A21484602F01AF8E5
:104490002D18EDB253461D70B000414602F012F8DF
:1044A00006000A2102F014F88C42A44164420A2159
:1044B000300002F007F82418E4B253465C702B0079
:1044C000403B3F2B00D868E7029B0133029376E71D
:1044D000029B022B21DC0321039801F0F3FF079CD0
:1044E00020700321049801F0EDFF6070032105980E
:1044F00001F0E8FFA07003239C46E244394B9A4543
:1045000022D0029B022B08DC069B0133069300237A
:10451000019305930493039359E72B4B62221A707E
:104520005E325A70913A9A70029B022B0CDD264B38
:104530005E22DA7060321A718F3A5A712C329A7197
:104540005D32DA718B3A1A72154801F0AFFF1C49DF
:104550000B685B0C5B048022920013430B60164BCC
:10456000FA3AFF3A1A6001F0B9FF0A2001F0A4FFFD
:104570001D4B1A68074B1A7200F066F901F0B4FF80
:10458000002000F097FE0BB0F0BCBB46B246A94637
:10459000A046F0BD401B002038180020FFFF00FFA0
:1045A00020180020101900205018002000180020AA
:1045B000E017002074650010142000420606000079
:1045C0008401004038B56086E41A002018200042BB
:1045D0001C200042D420004202880000FFFFFDFFA3
:1045E00019880000ED1A00206C00044070B5451CCD
:1045F0000621280001F07EFFC830040506212800AE
:1046000001F07EFF044B4B431C4380231B062343D6
:10461000024A136070BDC046AAAA020024100042DC
:1046200080B582B001204107194A1160194908601C
:1046300019491A48086001F081FA01F009FAFFF7F8
:104640008BFB17497A20087016490020087016481D
:1046500001F05CFF01F038FCFFE7144908680190A5
:104660000198C32292029043019001984122920244
:104670001043019001980860FFE70D490020086091
:1046800000F00AFA62B601F043FC02B080BDC046F9
:1046900008ED00E050000840000100420117000052
:1046A0000000084048000840FC9F8A0024000040A9
:1046B0000401004080B584B0039003984168480825
:1046C0002A4A801801F0FEFE0290FFE70398006876
:1046D000C06FC00700280DD0FFE70398006840694D
:1046E000C007002805D0FFE7039800680068019024
:1046F000FFE7EBE703980168C86880221043C860B1
:1047000002980009C0B20399096808600298000B7A
:10471000C0B203990968486002980F2108400399C4
:104720000968C023C85003980168C8689043C860EE
:1047300003980168C72088600398016800204860DA
:10474000039800684069009003990A7A0323104691
:1047500018405307DB0F9B00C018D206920FD200FF
:1047600080180968C86004B080BDC04600366E017C
:1047700070B582B0024601A802700091007840B284
:10478000002817D4FFE701A9087840B20322D343D9
:104790001840D64A8058097849B28C07E50EFF24A4
:1047A000AC40A043009CA401E4B2AC4020431940BB
:1047B00088501AE001A908780F2420400838032205
:1047C000D34318400A4A8058097849B28D07EE0E43
:1047D000FF25B540A843009DAD01EDB2B54028438B
:1047E0002140083919408850FFE702B070BDC0462B
:1047F0001CED00E00C4B00221A700C4B1B7F002BB1
:1048000011D00A4B5B7F002B02D0074B01321A708C
:10481000054A1378591C1170044AD27F002A02D02D
:10482000014A023313707047D41A00206C1B002019
:1048300080B582B0019001997D20C000484301F00D
:104840003BFE02B080BD0000064A136801218B4385
:104850001360054B00221A60044A13688B431360EF
:104860007047C046E8200042000004400420004297
:10487000F0B5C64600B506001B4D2B6898461B4F89
:104880003A6880235B0013433B602B681C22134370
:104890002B602A6880239B0013432B6014490A680D
:1048A000144B1A40A0239B0013430B6000F07AFACC
:1048B00004003B68104A13403B6043462B600F4F97
:1048C0000100380001F01CFEE30F1B195A10CD1730
:1048D000DB0F91425D412100380001F00BFE2818EA
:1048E000301A80BCB846F0BD042000420C200042C3
:1048F000082000427FF8FFFFFFFEFFFF80A90300B2
:10490000F0B5C64600B588B08021202289056846EA
:10491000FFF710F9254B882252031A60244B254AD1
:104920001A60254A116880239B010B4313600823FA
:104930009846002400258026B600204F1BE0E4188E
:104940000431B94210D00B681A03920DB24202DB57
:104950001B4884466244AD189B059B0DB342EEDBB9
:10496000174A94466344EAE701235B429C46E044CD
:104970004346002B04D000F089FE80218905E2E740
:104980008020202269468005FFF7D4F8E8173F23EE
:104990001840401980110004E21713401B199B02B4
:1049A0001B0C184308B080BCB846F0BD6001004045
:1049B0007001004007000901240000402000002091
:1049C00000FCFFFF002A02D0072800DD1038401845
:1049D000824203DC0F32824200DD02001032D31724
:1049E0001B0FD2180F201040C01A7047B0B584B00A
:1049F0000A46014603A8017002A90A7001902548E1
:104A00000090019802789007C30EE02005469D4073
:104A1000009BD206520F94001A59AA431A510B78E0
:104A20000340019800788107C90E8B400099C006A9
:104A3000400F820088581843885004B0B0BDC0466B
:104A4000B0B584B00A46014603A8017002A90A70F5
:104A5000019010480090019802789007C30E18202A
:104A600005469D40009BD206520F94001A59AA4356
:104A70001A510B780340019800788107C90E8B40CA
:104A80000099C006400F820088581843885004B02F
:104A9000B0BDC0460002014080B582B00420C043D2
:104AA00003210191FFF764FE0020C0430221FFF7BC
:104AB0005FFE01990120C043FFF75AFE0B490C48E5
:104AC00008600C490C4808600C490D4808600D4A04
:104AD0000D4911600D4A11600D4A0E4911600E49D1
:104AE00008600E49086002B080BDC04600E400E0E6
:104AF00040C0004004E400E0C0C0C08008E400E022
:104B0000808080800CE400E080C080C010E400E081
:104B100014E400E0C040C0C018E400E01CE400E081
:104B200010B5AAB0299028A80180299805900020E6
:104B3000029001A90880FFE701A8008828A9098838
:104B4000884236DAFFE702987F281DD8FFE70598EC
:104B500001AA1188405C010904A801700599128816
:104B6000895C0F22114003AA117001781748435C39
:104B7000029C611C029106A90B551278805C029A76
:104B8000531C029388540EE0029A501C029006A90E
:104B90002E208854029A531C02938854029A531C64
:104BA0000293885405E0FFE70198401C01A90880A2
:104BB000C2E7029A501C029006A9002088540248BD
:104BC00001F0EEF92AB010BDA46600108365001054
:104BD00080B59AB0002005901990FFF721FD7D2047
:104BE0000001FFF725FE01F067F93448029001F05B
:104BF000D7F9334801F0D4F9029801F0D1F93149DD
:104C000008A801904422FEF79BFF019801784078A4
:104C1000000241182C480A182C4801F0C1F90198EB
:104C2000017942798379C0790090294801F0B8F977
:104C3000019800F063FD0120039000F063FD254919
:104C4000049158200880FFF715F9039907A89622C8
:104C5000027000F04FFDFFF755FAFFF78DF9059848
:104C600001F02EF9029801F09BF91B4801F098F928
:104C7000029801F095F903990498184A1170028876
:104C800017482021262301F047FC05980690FFE7EE
:104C900012480078002810D1FFE712480078002859
:104CA0000BD1FFE70D49012008700A4802880C4823
:104CB0002021262301F030FCFFE7E9E7D86500104A
:104CC00089660010306500103C090000B6650010D0
:104CD00005660010E21A0020A0650010741C002078
:104CE000881C00207C1C002010B5002300F036F842
:104CF00000F07EF9012000F01FF88020C00570212F
:104D00001022435C1342FCD08023DB05D86F10BD1A
:104D10008022D205B023D158C217913B13401818F6
:104D200042113F2800D8022252188020C005B0212D
:104D300043589A42FCD870478022D2057023D35C36
:104D4000DBB2002807D101229343DBB28021C905E1
:104D500070228B54704701221343F6E7F0B580268A
:104D6000F6057025745D0127BC439B002343DBB22D
:104D70007355022304009C43012C06D00124230018
:104D800083401B028C40234305E0012423008B4019
:104D90001B02844023439BB28021C90574200B521F
:104DA0008A67F0BD70B58023DB0570215A5C012550
:104DB000AA435A547422194999526A3A9A67184C6C
:104DC0002368022633432360642001F075FB2368C7
:104DD000B3432360642001F06FFB23682B432360FF
:104DE0008020C00570211022435C1342FCD0802338
:104DF000DB05DD6F0A4C236801229343236023689F
:104E0000022633432360642001F056FB2368B3433A
:104E10002360642001F050FB280070BD08100000E2
:104E200070000040F0B5DE46574680B583B0374A83
:104E300084235B00D4582404240EFF270025344B20
:104E400000930193334B9B4692468426760012E0F2
:104E5000621BD30F9B185B102700E41A0090AC4232
:104E60001BD0BC4219D053469B592B4A13402202F7
:104E70001343524693515A4601210320FFF734FF52
:104E8000264B9C4660440028E2DC3A1BD30F9B185B
:104E90005B1025001C190190E1E7019AD317D21885
:104EA0005A400099CB17CE185E40B24200DD3D005B
:104EB000164A84235B00D45868206843184B9C46EC
:104EC00060445A2101F016FBAA38FF2800DDFF20BC
:104ED000C343DB1718400004FF2D00DDFF25EB4323
:104EE000DB171D402D0228430E4B1C402043074A70
:104EF00084235B00D0500020FFF71EFF00F078F8FD
:104F000003B0C0BCBB46B246F0BDC046000008407E
:104F1000FFFFFF0F80A90300FF00FFFF8056FCFF8B
:104F200010450000FF0000FFF0B5DE46574680B593
:104F300083B02B4A86235B00D45A6404240EFF27D7
:104F40000025284B009301934823FF339B4692464C
:104F50008626760013E0621BD30F9B185B10270098
:104F6000E41A0090AC421CD0BC421AD053469A5B63
:104F70001D4B1A40E30113439BB2524693535A46CA
:104F800000210320FFF7B0FE184B9C466044002828
:104F9000E1DC3A1BD30F9B185B1025001C19019014
:104FA000E0E7019AD317D2185A400099CB17CE18D0
:104FB0005E40B24200DD3D000949862252008B5A14
:104FC00009480340ED011D43ADB28D520020FFF7AB
:104FD000B3FE00F00DF803B0C0BCBB46B246F0BD56
:104FE00000000840FFFFFF0F7F80FFFF8056FCFF9F
:104FF00070B58025ED0570242B5D022213432B55DF
:105000006420FFF785FE2B5D022293432B5564201D
:10501000FFF77EFE70BD000070B59B204000FFF7DB
:1050200027FC0400594B1D686B1C0CD0584B2F22D9
:105030009B5C1B071A0F1300072A02D9103B5AB2B8
:1050400015E052B213E0182101F054FA0600E317FC
:10505000E0185840182101F053FA00230B2904DD11
:10506000E343DB1702221340013BF21852B2494ED0
:10507000F2721100D3B2581DC0B20432F270002295
:10508000F02804D8021C0F2800D90F22D2B24148C0
:105090008270CA1C5200D2B20020F02A04D8101C20
:1050A0001F2A00D91F20C0B23A4A10715B00DBB240
:1050B000D81D507108000C30400090710533D37139
:1050C00001350BD0324B2E229B5C1D092A007F2B11
:1050D00002D9103A55B21AE06DB218E08B00C91A25
:1050E000C9000C190621200001F004FA0500E3179D
:1050F000E0185840062101F003FA0023022904DDDC
:10510000E443E31702221340013BED186DB2214E38
:10511000B5721F4C20780007000F00222900FFF70E
:1051200051FC30700822A0780007000F524229007D
:10513000FFF748FC707003237372A38E1B051A0DD2
:10514000D80B801A80008018C0004823E15A090556
:10515000090D01F0CFF9104B1C000C34002503227F
:10516000012602E00233A34206D019888142F9DC0D
:10517000013A52B23500F5E7002D01D0054B5A72C5
:10518000FFF750FEFFF7D0FE70BDC0465C3F801FAA
:10519000F41A0020401B00209465001010B51C4B31
:1051A0001C4A1A601C4801F081F91C4B02221A7338
:1051B0001B490A681B4B1A4080231B0513430B60D5
:1051C000194A136801210B431360184A13680F3101
:1051D0008B4313600024E0B200F0AEF90134092CD7
:1051E000F9D11349134A144808CA1B090B8002312C
:1051F0008242F9D10D4A136810210B4313600A4A09
:1052000013680F398B4313600C4801F04FF910BD40
:105210005018002038B56086C0190020401B0020BF
:10522000C4200042FFFFFFF300110042C0200042F3
:105230004E1B00202020004244200042A8190020DC
:1052400010B5104B104A1A808421C905602303222F
:10525000CA540E4BC02080001A580D4C22401A50E0
:1052600004221A600B4B2F20D8640B4B0B810B4B85
:105270000B4919600B4B1A700B4B28321A80FEF742
:10528000F1FF10BD000100420117000000E100E045
:10529000FFFF00FF8000004200F7FFFF30100042D8
:1052A000010A0000CE0000420011004210B500F0DB
:1052B00001F810BD30B5294B5B7A5BB218180300BA
:1052C000193301DA192040420C2800DD0C20193076
:1052D000C0B2224B9A7814001934E4B20025202879
:1052E00004D91F4B010021394900CD5AA909C9022F
:1052F0003F232B401943531CDB02D20322431343A9
:105300005B18184A4000825A174C20683F21114010
:10531000164D284001439209D2020A4322601449E3
:105320000A68144802401A430A6013495A04120FCB
:10533000D2044C6B1148044022434A631A04D20F32
:10534000D205CC6B04402243CA635B035B0F1B0492
:105350004A6C024013434B64002030BD401B0020C8
:10536000441A0020F81900208C200042C007FCFFDE
:1053700008200042C007F8FF10190020FFFF00FFBF
:1053800010B50100064B02221A705A709A70DA703A
:10539000044B39321800FEF7CDFBFFF72BFA10BD96
:1053A000F81B00206C1B002010B50A000B4BDB78AB
:1053B000012B0AD900290BD08B420CD9084B0100D4
:1053C0001800FEF7B7FB002010BD01204042FBE7AC
:1053D00002204042F8E702204042F5E76C1B002023
:1053E000A81B0020002808D007490A68074B1A406C
:1053F000C0239B0013430B607047034A13680349A3
:105400000B401360F8E7C04658000042FFFCFFFF66
:10541000031C002800D10123DBB2144A9278012A30
:1054200017D99900C9184904114A0A4311494A6019
:10543000012814D910491A00FF320A840F4A0121A9
:10544000117080225202944663448422D205D365AF
:1054500070479900C9180904054A0A43E6E7064A55
:1054600000211184054A1170EBE7C0466C1B002037
:10547000085000000819002050100042CF000042E0
:1054800010B504000B4B9B78023B012B03D98423FE
:10549000DB059C8210BD074BDB7B002B05D1064B47
:1054A00000221A60054A5A60F1E7C0B2FEF786FC96
:1054B000EDE7C0466C1B0020D81600200850010004
:1054C00085B0049003910292019369460020087010
:1054D000FFE7684600780199884218DAFFE70398E9
:1054E0000078802801DBFFE711E00298694609781F
:1054F000405C0499039A1278885403990878401CF8
:105500000870FFE70098401C69460870E1E705B0A5
:105510007047420055239A43401003401A43D2B2C9
:10552000930033218B4392100A401343DBB21809D6
:105530001B01DBB218437047F0B5DE4657464E46B6
:105540004546E0B583B03E4B1B1A9B0098460823A6
:105550001B1A1B013B4A1360FFF7D2F9021403B276
:10556000002A15DDC0218A4640267642002B13DD35
:10557000C0218B4640277F42143228210024250079
:10558000914265411433994264412823994623E0AE
:1055900040218A464026E9E740218B464027EBE739
:1055A00043461A68284B1A4053461B03134342468E
:1055B0001360002C1DD113E08A440E002DE0E3445B
:1055C00067461432002425004B4693426541019BF7
:1055D00014334A469A426441002DE1D0002C27D171
:1055E00043461A68194B1A405B461B011343424657
:1055F0001360FFF785F9021403B201937110B142F1
:1056000016D07B109C46BB4212D0002D05D1002A3B
:10561000D2DB53465B1A9A460E00002CD1D1019B77
:10562000002BCCDB5B4661465B1A9B466746C8E7AE
:1056300003B0F0BCBB46B246A946A046F0BDC0468A
:105640001008801004110042FF0FF0FF0FF0FFFF61
:10565000F0B5C64600B580460F00052400250A4E69
:1056600033681B0C1B043B433360404600F05AFF79
:105670002D18013C002CF3D10521280000F022FF59
:1056800080BCB846F0BDC0468401004082B0144BD7
:1056900001221A60134B1B68019312490B68019A8F
:1056A0009B1A132BFAD90E4B03221A600D4B1B6861
:1056B00000930C490B68009A9B1A132BFAD9084BDC
:1056C00001221A60084906320B681A42FCD1044BC9
:1056D00000221A60054B064A1A6002B07047C046A5
:1056E0006401004004010042680100407001004074
:1056F0000700090080B5FFF757FE80BD80B5FFF7B2
:105700003FFE80BD80B5FFF76DFE80BD1948006883
:105710007047C04681B080B587B009930590049169
:1057200003920598049940180190FFE70398002818
:105730000DD0FFE709A80290039902988847002836
:1057400004D0FFE706A9002008700BE0FFE7FFE7A1
:105750000848006801998842E8D3FFE706A90120BC
:105760000870FFE706A8007807B080BC02BC01B053
:105770008E467047B41C002080B588B0069006980D
:10578000002804D1FFE707A90120087050E006981F
:10579000FEF762FAFFE72022059227490868049085
:1057A000059B04989843049004981043049004982F
:1057B0000860FFE7069800682049884211D1FFE79A
:1057C000FFE7402203921F4908680290039B02985A
:1057D0009843029002981043029002980860FFE7F5
:1057E00017E0069800681649884211D1FFE7FFE7E5
:1057F00080220192134908680090019B0098984309
:10580000009000981043009000980860FFE7FFE7C1
:10581000FFE70698FEF79CFA0698FEF74BFF0699FD
:10582000202008770699487707A900200870FFE72D
:1058300007A8007808B080BD20000040001000419B
:10584000002000412800004010B588B00690059166
:1058500004A802800393FFF759FF02900698007F87
:10586000202800D080E00598002805D0FFE704A894
:105870000088002804D1FFE707A90120087077E01D
:105880000699212008770498069908820398401CFD
:1058900000283ED0FFE7FFE70698008A002825D0C1
:1058A000FFE702980399069B20220092324AFFF7F5
:1058B00031FF002807D0FFE706992020087707A9C5
:1058C0000320087054E00699088A401E0882059853
:1058D000411C059100780699096808600698008ABD
:1058E000002801D1FFE701E0FFE7D5E7029803991F
:1058F000069B40220092204AFFF70CFF002807D0A9
:10590000FFE706992020087707A9032008702FE0F9
:1059100023E0FFE70698008A002814D0FFE70698E6
:1059200000684069800600280CD5FFE70699088AC0
:10593000401E08820598411C059100780699096867
:105940000860FFE7E6E7FFE7069800684069400661
:10595000002801D5FFE7F7E7FFE706992020087741
:1059600007A90020087003E007A902200870FFE7DC
:1059700007A8007808B010BD195F001080B586B088
:10598000034605A80190037004AB0293197003A9A4
:105990000A700078002100F02FF801980299007831
:1059A0000978FFF723F802980078802805D0FFE7F0
:1059B00004A80078012809D1FFE70E48006805A96E
:1059C0000A78012191400843009008E009480068E6
:1059D00005A90A780121914088430090FFE70098CB
:1059E0000449086005A8007803A90978FFF728F89A
:1059F00006B080BD30000140B0B584B00A46014613
:105A000003A8017002A90A70019010480090019843
:105A100002789007C30E072005469D40009BD206E2
:105A2000520F94001A59AA431A510B780340019857
:105A300000788107C90E8B400099C006400F820094
:105A400088581843885004B0B0BDC04600020140D9
:105A50008AB0FFE70F208003099032490868089058
:105A6000099A0898904308902F4880780007820B85
:105A700008981043089008980860FFE7FFE7FF20A8
:105A800000020790294908680690079A06989043F3
:105A90000690FE4800790202069810430690069888
:105AA0000860FFE7FFE7FF20C00105902049086874
:105AB0000490059A049890430490F4488079C201B8
:105AC00004981043049004980860FFE7FFE73F2024
:105AD00080040390174908680290039A0298904343
:105AE0000290EA48806B8006020A029810430290F6
:105AF00002980860FFE7FFE70F20C00601900E49FB
:105B000008680090019A009890430090DF48007860
:105B10000007420800981043009000980860FFE7D3
:105B20000AB0704704010840F41A00200801084038
:105B30000C010840100108400820004210B582B056
:105B4000D2480190D2494C22FDF7FAFF0198007823
:105B5000FF2807D1FFE7CD490878F02210400A302E
:105B60000870FFE7C9488078FF2807D1FFE7C749D9
:105B70008878F0221040C01C8870FFE7C3488088F6
:105B8000C449884204D1FFE7C0498D200871FFE76E
:105B9000BE48C088BF49884204D1FFE7BB49B7204F
:105BA0008871FFE7B9480089BA4988420AD1FFE7FE
:105BB000B64908893F22920210402322D200801861
:105BC0000881FFE7B148C068401C002811D1FFE7F9
:105BD000AE4988890F22120310404B22D200801850
:105BE0008881C8893F2292021040AB4A8018C88140
:105BF000FFE7A6480069401C00280ED1FFE7A34933
:105C0000088A0F2212031040C8300882488A3F22B7
:105C100092021040E4304882FFE79C484069401CF3
:105C2000002811D1FFE79949888A0F2212031040FA
:105C30004B22120180188882C88A3F2292021040AB
:105C4000954A8018C882FFE790488069401C002868
:105C500010D1FFE78D49088B0F2212031040192243
:105C6000120180180883488B3F2292021040E430D2
:105C70004883FFE78548C069401C002811D1FFE731
:105C80008249888B0F2212031040E122D200801833
:105C90008883C88B3F22920210407F4A8018C883B5
:105CA000FFE77A48006A401C002810D1FFE77749D7
:105CB000088C0F22120310404B22D2008018088457
:105CC000488C3F2292021040E4304884FFE76F483E
:105CD000406A401C002811D1FFE76C49888C0F22D4
:105CE000120310404B22520180188884C88C3F2236
:105CF00092021040684A8018C884FFE76348806AAF
:105D0000401C002810D1FFE76049088D0F221203C4
:105D100010401922520180180885488D3F229202B6
:105D20001040E4304885FFE75848C06A401C00280E
:105D300021D1FFE755490091C86A584A1043C8620B
:105D4000C86A1F239A029043012254030019C862B3
:105D5000C86ADB0398431923DB03C018C862C86A0A
:105D60000F231C05A043C862C86A1B06984312068D
:105D70008018C862FFE74548008E4649884207D12F
:105D8000FFE74249088E0F22120310400886FFE702
:105D90003E48408E3F49884207D1FFE73B49488E45
:105DA0000F22120310404886FFE73848808E394999
:105DB000884209D1FFE73549888E0F22120310402F
:105DC000374A80188886FFE73048806B401C0028DF
:105DD00008D1FFE72D49886B352210430A229043F2
:105DE0008863FFE72948C06B401C002809D1FFE702
:105DF0002649C86B0122D20710402A4A8018C8637E
:105E0000FFE72248006C401C002812D1FFE71F4A20
:105E10004023D05A114640310F2424032040224C05
:105E20000019D0524888214A1043AA229043488042
:105E3000FFE71648406C401C002814D1FFE7134AC6
:105E40004423D05A114644310F24240320407D249A
:105E500024010019D05248883F2292021040144A6F
:105E600080184880FFE709484821405A094988427C
:105E70000AD1FFE705494822885A0F231B0318401F
:105E80000C4BC0188852FFE702B010BDF41A002076
:105E9000303F801FFFFF0000AB020000FF03000047
:105EA0000C04000080A90300B80B0000550300009B
:105EB000390200008D05000080B5FFF7C1F980BDF3
:105EC00080B5FFF7F3F980BD82B00F4800680190FC
:105ED0000198002815D0FFE701980C4908600020C0
:105EE0000090FFE70098FF21F431884205DCFFE7CE
:105EF000FFE70098401C0090F4E704490020086088
:105F0000FFE7019802B070471C00084018000840E5
:105F100080B500F017F880BD83B002900298011D93
:105F20000291006801900298011D029100680090A2
:105F300001980068406900990840411E884103B0FB
:105F40007047000080B584B0134901911348086080
:105F5000E12040024860087A032210430872087A60
:105F6000FB2210400872087AE722104008721420C1
:105F7000029020210822FFF701FD0198FFF7FCFBAA
:105F8000029802210391FFF737FD03991520FFF7CF
:105F900033FD04B080BDC046B01A0020001000419F
:105FA00083B080B583B0079306920591029005A84F
:105FB00001900298019900F007F803B080BC01BC81
:105FC00003B086467047000080B5B4B0339132907C
:105FD00025A90020087004A90870FFE7329800780E
:105FE000002800D138E200203190FFE73298319943
:105FF000415C00202529039007D0FFE732983199B2
:10600000405C411E88410390FFE70398C0070028C9
:1060100005D0FFE7FFE73198401C3190E6E7319863
:10602000002807D0FFE7329A319B05A804A9FFF7A3
:1060300047FAFFE731993298401832903298007849
:10604000252800D007E23298401C329000202E9084
:1060500026A920200870FFE73298411C3291007871
:1060600025380290552800D9EDE10298810001A061
:10607000405887463564001047640010476400109C
:106080004764001047640010476400104764001024
:106090004764001047640010476400104764001014
:1060A000CD610010CD610010CD610010CD610010F8
:1060B000CD610010CD610010CD610010CD610010E8
:1060C000CD610010CD6100104764001047640010DE
:1060D00047640010476400104764001047640010D4
:1060E00047640010476400104764001047640010C4
:1060F00047640010476400104764001047640010B4
:1061000047640010476400104764001047640010A3
:106110004764001047640010476400104764001093
:106120004764001047640010476400104764001083
:106130004764001047640010476400104764001073
:10614000C1620010476400104764001047640010EB
:106150004764001047640010476400104764001053
:10616000476400104764001047640010016200108B
:106170001962001047640010476400104764001063
:106180004764001047640010476400104764001023
:106190004564001047640010476400104764001015
:1061A000DD62001047640010476400104762001071
:1061B00047640010AB620010476400104764001091
:1061C000DD62001047640010196200103298401E12
:1061D0000078302808D1FFE72E98002804D1FFE787
:1061E00026A930200870FFE72E990A2048432E90F8
:1061F0003298401E00782E99401830382E902BE7A8
:106200003398011D33910068309005A804A930AA85
:106210000123FFF755F91DE13398011D3391006803
:10622000309000202F903098002806D5FFE7309856
:106230004042309001202C9002E000202C90FFE79B
:106240000A202D9058E03398011D339100682B905F
:1062500000203190FFE72B983199405C002805D051
:10626000FFE7FFE73198401C3190F4E72B9A319B10
:1062700005A804A9FFF724F92E983199884213D96B
:10628000FFE731992E98401A2E90FFE72E98411E75
:106290002E91002807D0FFE7774A05A804A901231B
:1062A000FFF70EF9F2E7FFE7D4E03398011D3391D1
:1062B0000068309000202F900A212D912C901BE037
:1062C0003398011D33910068309000202F901021E9
:1062D0002D912C9025A9582008700DE03398011DB0
:1062E00033910068309000202F9010212D912C9038
:1062F00025A978200870FFE701203190FFE7319849
:106300002D994143309A0020914201900DD8FFE72A
:10631000319A00922D990846504300F0D3F8009925
:10632000401A414248410190FFE70198C007002808
:1063300009D0FFE7FFE72D983199484331902E9817
:10634000401E2E90DBE72C98002804D0FFE72E9803
:10635000401E2E90FFE72C9800280ED0FFE726A8BD
:106360000078302809D1FFE72F9A501C2F9027A9D9
:106370002D20885400202C90FFE72E98022818D357
:10638000FFE72E980F2814D8FFE72E98401E2E9076
:10639000FFE72E9800280BD0FFE726982F9A511C74
:1063A0002F9127A98854FFE72E98401E2E90F0E7E2
:1063B000FFE72C98002807D0FFE72F9A501C2F905A
:1063C00027A92D208854FFE7FFE7319800282AD01D
:1063D000FFE725A8007878280FD1FFE7309831999A
:1063E00000F070F82D9900F073F82548405C2F9A62
:1063F000511C2F9127A988540EE03098319900F054
:1064000061F82D9900F064F81C48405C2F9A511CEB
:106410002F9127A98854FFE7FFE72D99319800F0C5
:1064200051F83190D1E72F9B05A804A927AAFFF7BF
:1064300047F80FE03298421E05A804A90123FFF790
:106440003FF807E008E60F4A05A804A90523FFF76F
:1064500037F8FFE7FFE7C1E504A80378591C01708E
:1064600005A90A22CA54027802486423FFF7ECF90E
:1064700034B080BDB01A0020A7660010A9660010D5
:10648000C0660010BA66001003B40148019001BD57
:10649000D508002003B40148019001BDD5100020AB
:1064A00003B40148019001BDB506002003B40148C2
:1064B000019001BD6904002003B40148019001BDB1
:1064C0004D02002003B40148019001BDD912002003
:1064D00003B40148019001BDE110002003B401485C
:1064E000019001BD0D04002003B40148019001BDDD
:1064F0009107002003B40148019001BD1D13002045
:1065000003B40148019001BDFD10002003B401480F
:10651000019001BDA901002003B40148019001BD13
:106520002510002003B40148019001BDC5030020DF
:1065300058000002C33C5AA500000000043075005A
:1065400000000002FFFF0000211000000603000011
:106550000000010000200000F401FA00000000002B
:10656000000000000000000000000000000000002B
:106570000000000007142100010101010102040ACA
:106580001432FA30313233343536373839414243F8
:10659000444546001A037B03E8036204EB048505C7
:1065A0005B495D3A524620496E697420436F6D70B5
:1065B0006C65746521005B495D3A5B4346475D202D
:1065C0006368616E6E656C3D256420286672657136
:1065D0003D25644D487A29005B495D3A3D3D3D3D8E
:1065E0003D3D3D3D3D3D3D3D3D3D3D3D3D3D3D3DDB
:1065F0003D3D3D3D3D3D3D3D3D3D3D3D3D3D3D3DCB
:106600003D3D3D3D005B495D3A5B4346475D206152
:106610006363657373436F64653D2530325820258D
:1066200030325820253032582025303258005B490E
:106630005D3A5B52585D206C656E3D2564005B4998
:106640005D3A5B53594E435D2073796E635F636FB0
:10665000756E743D2564005B495D3A5B52585F4F2F
:106660004B5D2072785F636F756E743D2564005BCF
:10667000495D3A5B54585F444F4E455D2074785FE6
:10668000636F756E743D2564005B495D3A6E5246DA
:1066900032344C3031204465627567205665727320
:1066A000696F6E0025730020003031323334353687
:1066B000373839414243444546004552524F520013
:1066C0003031323334353637383961626364656668
:1066D000000000000020001000000020C0000000AA
:1066E000843A0010C0200010D00000203C140000AC
:1066F000843A0010FC3400100C1500204405000002
:10670000843A001014670010501A00207002000034
:04671000A03A00109B
:0400000510003A416C
:00000001FF
